:10000000EDEF00F00000000000EF00F00000000045
:0A0010000000000000000000F3D71C
:10001C0022C0C9FFC7B002D00000FCD7C9CF00F086
:02002C001200C0
:06002E00000000001200BA
:10003400F250026EF29E0500FF6A0150FE6E0050FF
:08004400FD6E02BEF28E1200F7
:10004C001FC000F00036009000C01FF08292008CA0
:10005C0000801BC0E1FF1CC0E2FF00C0E6FF19C01E
:10006C0000F01AC001F0E0DF1BC0E1FF1CC0E2FF92
:10007C0020C0E6FF19C000F01AC001F0D5DF1BC08C
:10008C00E1FF1CC0E2FFE66A19C000F01AC001F0E3
:10009C00CBDF00C021F08282C4DFC3DFC2DF21C00E
:0400AC0000F012004E
:1000B0001FC000F00036009000C01FF08292008C3C
:1000C000FE0E00161BC0E1FF1CC0E2FF00C0E6FFF1
:1000D00019C000F01AC001F0ADDF1BC0E1FF1CC069
:1000E000E2FF20C0E6FF19C000F01AC001F0A2DF55
:1000F0001BC0E1FF1CC0E2FF21C0E6FF19C000F0F9
:100100001AC001F097DF828292DF91DF90DF120048
:0C0110001DC01FF0130E206E99DF1200BE
:0E011C001DC01FF0206A1EC021F0C4DF1200BB
:10012A001C0E196E000E1A6E220E1B6E000E1C6E2D
:10013A00FF0E156EFF0E166EFF0E176EFF0E186E6F
:10014A00949A94969488C66A400EC76EC68A12001C
:10015A009490828094928282829064DF63DF8280AC
:10016A0061DF82921BC0E1FF1CC0E2FF400EE66E17
:10017A0019C000F01AC001F058DF1BC0E1FF1CC013
:10018A00E2FF0A0EE66E19C000F01AC001F04DDF58
:10019A001BC0E1FF1CC0E2FF080EE66E19C000F0AA
:1001AA001AC001F042DF82823DDF3CDF3BDF1200F2
:1001BA001DC01FF0010E206E1EC021F074DF120058
:1001CA001DC01FF0140E206E1EC021F06CDF12003D
:1001DA006E0ED36E070EB46E020EC26E0E0EC16E96
:1001EA009FDF1D6AB5DF1D6A1E6A93DF1D6AFF0E57
:1001FA001E6EDEDF1D6A87DF00C01EF01D6AE0DFAB
:10020A00020E0B6E040E0C6EBA0E0D6E0D2EFED77C
:0E021A000C2EFCD70B2EFAD70000ECD7FFD726
:020000040030CA
:0D000100081F1EFF0381FF0FC00FE00F401E
:00000001FF
